:100000000C942A000C9447000C9447000C94470071
:100010000C9447000C9447000C9447000C94470044
:100020000C9447000C9447000C9447000C94470034
:100030000C9447000C9447000C9447000C94470024
:100040000C9447000C9447000C9447000C94470014
:100050000C94470011241FBECFE5D8E0DEBFCDBF12
:1000600010E0A0E6B0E0E8E3FFE002C005900D92EA
:10007000A239B107D9F710E0A2E9B0E001C01D92A2
:10008000A439B107E1F70E9470070C949A070C9409
:100090000000DF93CF9300D000D00F92CDB7DEB732
:1000A0009B838A8381E089838A819B81009761F0A9
:1000B000EA81FB8180818695869586958770882F59
:1000C00090E08830910514F019827AC0EA81FB81B2
:1000D000808182958695869583708170282F30E087
:1000E0003D832C838C819D81009731F02C813D8153
:1000F0002130310599F163C0EA81FB8180818770ED
:10010000882F90E0880F991FFC01E05AFF4FA081D3
:10011000B181EA81FB8180818770882F90E0880F10
:10012000991FFC01E05AFF4F0190F081E02D808182
:10013000482FEA81FB818081869586958695877018
:10014000282F30E081E090E0022E02C0880F991F36
:100150000A94E2F7809584238C9332C0EA81FB8174
:1001600080818770882F90E0880F991FFC01E05AEA
:10017000FF4FA081B181EA81FB8180818770882F48
:1001800090E0880F991FFC01E05AFF4F0190F08129
:10019000E02D8081482FEA81FB81808186958695BC
:1001A00086958770282F30E081E090E0022E02C013
:1001B000880F991F0A94E2F7842B8C9301C019824F
:1001C00089810F900F900F900F900F90CF91DF913A
:1001D0000895DF93CF9300D000D00F92CDB7DEB754
:1001E0009B838A837D836C8381E089838A819B8161
:1001F000009781F0EA81FB818081869586958695BE
:100200008770882F90E08830910524F48C819D813F
:10021000009711F4198225C0EA81FB8180818770E3
:10022000882F90E0880F991FFC01E05AFF4F019042
:10023000F081E02D8081282F30E0EA81FB818081F0
:100240008695869586958770882F90E0A90102C0D3
:10025000559547958A95E2F7CA018170EC81FD8139
:10026000808389810F900F900F900F900F90CF9106
:10027000DF910895DF93CF9300D000D000D0CDB7A9
:10028000DEB79B838A836C8381E089838A819B812B
:10029000009761F0EA81FB8180818695869586953D
:1002A0008770882F90E08830910514F0198273C010
:1002B0008C81282F30E03E832D838D819E81009795
:1002C00031F02D813E812130310599F163C0EA8101
:1002D000FB8180818770882F90E0880F991FFC0137
:1002E000E059FF4FA081B181EA81FB818081877055
:1002F000882F90E0880F991FFC01E059FF4F019073
:10030000F081E02D8081482FEA81FB8180818695F4
:10031000869586958770282F30E081E090E0022E48
:1003200002C0880F991F0A94E2F7809584238C936A
:1003300032C0EA81FB8180818770882F90E0880F2E
:10034000991FFC01E059FF4FA081B181EA81FB8137
:1003500080818770882F90E0880F991FFC01E059F9
:10036000FF4F0190F081E02D8081482FEA81FB81D1
:1003700080818695869586958770282F30E081E06C
:1003800090E0022E02C0880F991F0A94E2F7842B96
:100390008C9301C01982898126960FB6F894DEBF2E
:1003A0000FBECDBFCF91DF910895DF93CF9300D0E3
:1003B00000D00F92CDB7DEB79B838A837D836C8399
:1003C00081E089838A819B81009781F0EA81FB81AA
:1003D00080818695869586958770882F90E08830F5
:1003E000910524F48C819D81009711F4198225C018
:1003F000EA81FB8180818770882F90E0880F991FA8
:10040000FC01E859FF4F0190F081E02D8081282FF9
:1004100030E0EA81FB81808186958695869587709C
:10042000882F90E0A90102C0559547958A95E2F77B
:10043000CA018170EC81FD81808389810F900F90CA
:100440000F900F900F90CF91DF910895DF93CF938E
:1004500000D00F92CDB7DEB79B838A8381E089837A
:100460008A819B81009761F0EA81FB81808186957A
:10047000869586958770882F90E08830910514F0D6
:10048000198230C0EA81FB8180818770882F90E0DB
:10049000880F991FFC01E059FF4FA081B181EA81CB
:1004A000FB8180818770882F90E0880F991FFC0165
:1004B000E059FF4F0190F081E02D8081482FEA81C3
:1004C000FB8180818695869586958770282F30E000
:1004D00081E090E0022E02C0880F991F0A94E2F793
:1004E00084278C9389810F900F900F90CF91DF918B
:1004F0000895DF93CF9300D00F92CDB7DEB79B83E3
:100500008A8381E089838A819B81009761F0EA81F7
:10051000FB8180818695869586958770882F90E0EF
:100520008830910514F0198212C08A819B810E9443
:1005300049008983EA81FB818081881F8827881F81
:10054000282F8A819B81622F0E943A0189838981A9
:100550000F900F900F90CF91DF910895DF93CF937D
:1005600000D00F92CDB7DEB78A836B8381E0898399
:100570008A81843010F019820DC08A81882F90E022
:10058000880F991FFC01E05AFF4F0190F081E02D88
:100590008B81808389810F900F900F90CF91DF9195
:1005A0000895DF93CF9300D000D0CDB7DEB78A8314
:1005B0007C836B8381E089838A81843020F48B8102
:1005C0009C81009711F419820FC08A81882F90E0D6
:1005D000880F991FFC01E05AFF4F0190F081E02D38
:1005E0008081EB81FC81808389810F900F900F9037
:1005F0000F90CF91DF910895DF93CF9300D00F92AA
:10060000CDB7DEB78A836B8381E089838A818430AA
:1006100010F019820DC08A81882F90E0880F991FF1
:10062000FC01E059FF4F0190F081E02D8B81808328
:1006300089810F900F900F90CF91DF910895DF93F4
:10064000CF9300D000D0CDB7DEB78A837C836B8395
:1006500081E089838A81843020F48B819C8100979A
:1006600011F419820FC08A81882F90E0880F991F9A
:10067000FC01E059FF4F0190F081E02D8081EB817A
:10068000FC81808389810F900F900F900F90CF9104
:10069000DF910895DF93CF9300D0CDB7DEB78A8383
:1006A00081E089838A81843010F0198218C08A81A0
:1006B000882F90E0880F991FFC01E059FF4FA0811F
:1006C000B1818A81882F90E0880F991FFC01E05941
:1006D000FF4F0190F081E02D808180958C9389817E
:1006E0000F900F90CF91DF910895DF93CF9300D0BB
:1006F0000F92CDB7DEB79B838A8381E089838A819D
:100700009B81009711F4198205C08A819B810E9408
:100710007902898389810F900F900F90CF91DF919B
:100720000895DF93CF9300D000D0CDB7DEB79C8380
:100730008B8381E08A838B819C81009711F41A82DC
:1007400008C081E089838B819C8169810E943A0184
:100750008A838A810F900F900F900F90CF91DF9135
:100760000895DF93CF9300D000D0CDB7DEB79C8340
:100770008B8381E08A838B819C81009711F41A829C
:1007800007C019828B819C8169810E943A018A830A
:100790008A810F900F900F900F90CF91DF91089565
:1007A000DF93CF9300D00F92CDB7DEB79B838A83C0
:1007B00081E089838A819B81009711F4198205C0A9
:1007C0008A819B810E942602898389810F900F90E4
:1007D0000F90CF91DF910895DF93CF9300D000D099
:1007E0000F92CDB7DEB79B838A837D836C8381E0D4
:1007F00089838A819B81009721F08C819D8100975C
:1008000011F4198208C08A819B812C813D81B90134
:100810000E94D501898389810F900F900F900F90CE
:100820000F90CF91DF910895DF93CF9300D00F9277
:10083000CDB7DEB79B838A8381E089838A819B81E0
:10084000009711F4198205C08A819B810E94790268
:10085000898389810F900F900F90CF91DF91089538
:10086000DF93CF9300D00F92CDB7DEB79B838A83FF
:1008700081E089838A819B81009711F4198206C0E7
:100880008A819B8161E00E943A01898389810F906E
:100890000F900F90CF91DF910895DF93CF9300D009
:1008A0000F92CDB7DEB79B838A8381E089838A81EB
:1008B0009B81009711F4198206C08A819B8160E0B8
:1008C0000E943A01898389810F900F900F90CF91F8
:1008D000DF910895DF93CF9300D00F92CDB7DEB7AD
:1008E0009B838A8381E089838A819B81009711F4AD
:1008F000198205C08A819B810E9426028983898191
:100900000F900F900F90CF91DF910895DF93CF93C9
:1009100000D000D00F92CDB7DEB79B838A837D8352
:100920006C8381E089838A819B81009721F08C818F
:100930009D81009711F4198208C08A819B812C81C6
:100940003D81B9010E94D501898389810F900F9063
:100950000F900F900F90CF91DF910895DF93CF9379
:1009600000D000D00F92CDB7DEB79D838C8381E09D
:100970008B838C819D81009711F41B8227C01A8282
:100980000DC02C813D818A81882F90E0820F931FBA
:100990000E9479028B838A818F5F8A838A81843067
:1009A00080F3198210C08C819D819C012C5F3F4F88
:1009B0008981882F90E0820F931F0E9449008B83CA
:1009C00089818F5F89838981843068F38B810F905F
:1009D0000F900F900F900F90CF91DF910895DF93BC
:1009E000CF93CDB7DEB729970FB6F894DEBF0FBE11
:1009F000CDBF9F838E837987688781E08C838E81CA
:100A00009F81009721F088859985009711F41C82B9
:100A10007BC01D821B8274C01A820EC02E813F8152
:100A20008A81882F90E0820F931F60E00E943A0134
:100A30008C838A818F5F8A838A81843078F32E81C8
:100A40003F818B81882F90E0820F931F61E00E948D
:100A50003A018C8319824DC08E819F819C012C5F4D
:100A60003F4F8981882F90E0820F931F9E012B5F5B
:100A70003F4FB9010E94D5018C83EE81FF818085B3
:100A80008823C1F48D81813089F58B81482F50E016
:100A90008981282F30E0CA01880F991F880F991F7C
:100AA000820F931FFC01E858FF4F8081E885F9858C
:100AB00080831CC0EE81FF8180858130B9F48D81F7
:100AC0008823A1F48B81482F50E08981282F30E0C2
:100AD000CA01880F991F880F991F820F931FFC016D
:100AE000E858FF4F8081E885F985808389818F5F91
:100AF00089838981843008F4AFCF8B818F5F8B83AA
:100B00008B81843008F488CF8C8129960FB6F894B5
:100B1000DEBF0FBECDBFCF91DF910895DF93CF939E
:100B200000D00F92CDB7DEB79B838A8381E08983A3
:100B30008A819B81009711F419820BC08A819B8165
:100B40000E94790289838A819B8101960E947902A1
:100B5000898389810F900F900F90CF91DF91089535
:100B6000DF93CF9300D000D00F92CDB7DEB79D8337
:100B70008C8381E08B838C819D81009711F41B8293
:100B800010C081E08A8319828C819D816A810E94D4
:100B90003A018B838C819D81019669810E943A0183
:100BA0008B838B810F900F900F900F900F90CF91B0
:100BB000DF910895DF93CF9300D000D00F92CDB78F
:100BC000DEB79D838C8381E08B838C819D81009730
:100BD00011F41B8210C01A8281E089838C819D816F
:100BE0006A810E943A018B838C819D810196698183
:100BF0000E943A018B838B810F900F900F900F9082
:100C00000F90CF91DF910895DF93CF9300D000D064
:100C10000F92CDB7DEB79D838C8381E08B838C816F
:100C20009D81009711F41B820FC01A8219828C815A
:100C30009D816A810E943A018B838C819D810196FE
:100C400069810E943A018B838B810F900F900F90E6
:100C50000F900F90CF91DF910895DF93CF93CDB791
:100C6000DEB727970FB6F894DEBF0FBECDBF9D83CA
:100C70008C837F836E8381E089838C819D81009743
:100C800021F08E819F81009711F419822EC01A8263
:100C90001B828C819D819E012E5F3F4FB9010E9476
:100CA000D50189838C819D8101969E012D5F3F4FE7
:100CB000B9010E94D50189838A81813041F48B81F9
:100CC000882329F4EE81FF8181E080830EC08A8130
:100CD000882341F48B81813029F4EE81FF8182E009
:100CE000808303C0EE81FF811082898127960FB631
:100CF000F894DEBF0FBECDBFCF91DF910895DF9393
:100D0000CF9300D00F92CDB7DEB79B838A8381E06B
:100D100089838A819B81009711F4198205C08A8199
:100D20009B810E944900898389810F900F900F90C9
:100D3000CF91DF910895DF93CF9300D000D000D002
:100D4000CDB7DEB79C838B837E836D8381E08983FF
:100D50008B819C81009721F08D819E81009711F4F9
:100D600019822DC01A828B819C819E012E5F3F4F7C
:100D7000B9010E94D5018983EB81FC81818188239F
:100D800061F48A81813021F4ED81FE81108217C0E7
:100D9000ED81FE8181E0808312C0EB81FC81818145
:100DA000813061F48A81813029F4ED81FE8181E016
:100DB000808305C0ED81FE81108201C01982898186
:100DC00026960FB6F894DEBF0FBECDBFCF91DF9150
:100DD0000895DF93CF9300D000D00F92CDB7DEB748
:100DE0009D838C8381E08B838C819D81009711F49E
:100DF0001B8216C01A8219820EC02C813D81898106
:100E00009A81820F931F0E9479028B8389819A8134
:100E100001969A83898389819A81843091056CF344
:100E20008B810F900F900F900F900F90CF91DF91CB
:100E30000895DF93CF9300D000D000D0CDB7DEB7B8
:100E40009D838C836E8381E08B838C819D81009751
:100E500019F08E818A3010F01B8224C01A82198208
:100E60001CC02C813D8189819A81A901480F591F9D
:100E70008E81882F90E0098002C0959587950A940D
:100E8000E2F7282F2170CA01622F0E943A018B835A
:100E900089819A8101969A83898389819A81843094
:100EA0009105FCF28B8126960FB6F894DEBF0FBE3B
:100EB000CDBFCF91DF910895DF93CF930F92CDB740
:100EC000DEB7198288E890E00E94AE04898381E948
:100ED00090E00E94140489830F90CF91DF910895D0
:100EE000DF93CF93CDB7DEB70E94910788E890E0FB
:100EF00023E930E0B9010E94EF04809392008091D1
:100F00009300833339F481E990E00E9430048093A8
:100F10009200ECCF81E990E00E944D048093920012
:100F2000E5CFDF93CF93CDB7DEB70E945C07CF91BB
:080F3000DF910895F894FFCF52
:100F38003A00370034003100390036003300300001
:100F48003B003800350032003738392F3435362A1F
:100F58003132332D43303D2B424A525A222A323AFB
:020F6800004344
:00000001FF
