:100000000C942A000C9489090C94CD090C94070ACD
:100010000C9447000C9447000C9447000C94470044
:100020000C9447000C9447000C9447000C94470034
:100030000C9447000C9447000C9447000C94470024
:100040000C9447000C9447000C9447000C94470014
:100050000C94470011241FBECFE5D8E0DEBFCDBF12
:1000600010E0A0E6B0E0ECE8F4E402C005900D92E8
:10007000AE3AB107D9F710E0AEEAB0E001C01D9288
:10008000A63BB107E1F70E94101D0C9444220C948A
:100090000000EF92FF920F931F937B018C0120E0F1
:1000A00030E040E05FE40E94F50388238CF0C80153
:1000B000B70120E030E040E05FE40E94C1010E940F
:1000C00055049B01AC01205030404040504806C0D0
:1000D000C801B7010E9455049B01AC01B901CA01D6
:1000E0001F910F91FF90EF900895A0E0B0E0EBE733
:1000F000F0E00C94651FDC012B01FA019C91923019
:1001000008F439C1EB018881823008F433C194309E
:1001100069F4843009F02FC111969C91119789815F
:10012000981709F428C1A3E6B0E025C1843009F48A
:1001300021C18230A9F4923009F01DC19A01AD01AC
:1001400088E0EA010990AE01E90109929E0181501F
:10015000C1F7E201898111969C918923818308C1AD
:10016000923009F407C112962D903C901397EB0141
:100170008A819B811496AD90BD90CD90DC901797AD
:10018000EC80FD800E811F819101281B390BB90184
:1001900037FF04C066277727621B730B6032710537
:1001A0000CF061C0121613066CF537014801062EDB
:1001B00004C096948794779467940A94D2F721E0C8
:1001C00030E040E050E004C0220F331F441F551FB1
:1001D0006A95D2F721503040404050402E213F21B7
:1001E00040235123211531054105510521F021E01E
:1001F00030E040E050E079018A01E628F72808293C
:1002000019293CC0232BD1F1260E371E350146019A
:10021000062E04C096948794779467940A94D2F734
:1002200021E030E040E050E004C0220F331F441FC3
:10023000551F6A95D2F721503040404050402A2146
:100240003B214C215D21211531054105510521F04E
:1002500021E030E040E050E059016A01A628B728CB
:10026000C828D9280BC0821593052CF01C01AA249C
:10027000BB24650103C0EE24FF24870111969C91E5
:10028000D20111968C91981709F445C0992339F041
:10029000A80197012A193B094C095D0906C0A6016E
:1002A00095012E193F09400B510B57FD08C01182D3
:1002B0003382228224833583468357831DC081E0A5
:1002C00081833382228288279927DC01821B930B4A
:1002D000A40BB50B84839583A683B7830DC0220F2F
:1002E000331F441F551F24833583468357838281E0
:1002F000938101979383828324813581468157813D
:10030000DA01C9010197A109B1098F5F9F4FAF4F72
:10031000BF4328F30BC0918333822282EA0CFB1C7B
:100320000C1D1D1DE482F5820683178383E0808304
:10033000248135814681578157FF1AC0C901AA27F8
:1003400097FDA095BA2F81709070A070B0705695EF
:10035000479537952795822B932BA42BB52B848318
:100360009583A683B7838281938101969383828349
:10037000DF0101C0D201CD01CDB7DEB7E2E10C94BF
:10038000811FA0E2B0E0E7ECF1E00C94711F6983FB
:100390007A838B839C832D833E834F835887E9E048
:1003A000EE2EF12CEC0EFD1ECE010196B7010E943F
:1003B0007E058E010F5E1F4FCE010596B8010E948B
:1003C0007E058A8991E089278A8BC701B801AE0131
:1003D000475E5F4F0E9475000E94A904A096E6E068
:1003E0000C948D1FA0E2B0E0E8EFF1E00C94711FD7
:1003F00069837A838B839C832D833E834F835887C5
:10040000F9E0EF2EF12CEC0EFD1ECE010196B701A6
:100410000E947E058E010F5E1F4FCE010596B8012A
:100420000E947E05C701B801AE01475E5F4F0E9482
:1004300075000E94A904A096E6E00C948D1FA0E22E
:10044000B0E0E5E2F2E00C94651F69837A838B8368
:100450009C832D833E834F835887CE010196BE0136
:10046000675F7F4F0E947E05CE010596BE016F5EDD
:100470007F4F0E947E059985923088F0898982306D
:10048000C8F0943019F4823051F404C0843029F457
:10049000923081F483E690E0C6C0923049F420E0C7
:1004A0009A858A89981321E02A87CE010996BBC0D4
:1004B000823049F420E09A858A89981321E02A8BBA
:1004C000CE014196B0C02D843E844F8458886D88FB
:1004D0007E888F88988CEE24FF248701AA24BB2471
:1004E000650140E050E060E070E0E0E0F0E0C10174
:1004F00081709070892BE9F0E60CF71C081D191D1E
:100500009A01AB012A0D3B1D4C1D5D1D80E090E062
:10051000A0E0B0E0E614F7040805190520F481E036
:1005200090E0A0E0B0E0BA01A901480F591F6A1F8E
:100530007B1FAA0CBB1CCC1CDD1C97FE08C081E0F5
:1005400090E0A0E0B0E0A82AB92ACA2ADB2A3196B6
:10055000E032F10549F0660C771C881C991C569412
:10056000479437942794C3CFFA85EA892B893C892D
:100570008B859C85280F391F2E5F3F4F17C0CA01FE
:1005800081709070892B61F016950795F794E79428
:1005900080E090E0A0E0B0E8E82AF92A0A2B1B2BC3
:1005A00076956795579547952F5F3F4F77FDE7CF36
:1005B0000CC0440F551F661F771F17FD4160EE0CDE
:1005C000FF1C001F111F21503040403090E05907A0
:1005D00090E0690790E4790760F32B8F3C8FDB0193
:1005E000CA018F779070A070B07080349105A1051A
:1005F000B10561F447FD0AC0E114F10401051105DC
:1006000029F0405C5F4F6F4F7F4F40781A8EFE1786
:1006100011F081E08A8F4D8F5E8F6F8F78A383E01A
:10062000898FCE0149960E94A904A096E2E10C941C
:10063000811FA8E1B0E0EFE1F3E00C946D1F698346
:100640007A838B839C832D833E834F835887B9E0C5
:10065000EB2EF12CEC0EFD1ECE010196B7010E948F
:100660007E058E010F5E1F4FCE010596B8010E94D8
:100670007E052985223008F47EC03989323010F495
:10068000B8017CC08A859A8989278A87243011F02D
:10069000223031F4231709F06EC063E670E06EC0BB
:1006A000343039F41D861E861F86188A1C861B86E8
:1006B00004C0323021F484E08987B7015FC02B8504
:1006C0003C858B899C89281B390B3C872B87ED84C3
:1006D000FE840F851889AD88BE88CF88D88CEA142F
:1006E000FB040C051D0540F4EE0CFF1C001F111F40
:1006F000215030403C872B8720E030E040E050E044
:1007000080E090E0A0E0B0E460E070E0EA14FB0478
:100710000C051D0540F0282B392B4A2B5B2BEA18C2
:10072000FB080C091D09B695A79597958795EE0CC2
:10073000FF1C001F111F6F5F7F4F6F31710531F775
:10074000DA01C9018F779070A070B0708034910584
:10075000A105B10561F427FD0AC0E114F10401050A
:10076000110529F0205C3F4F4F4F5F4F20782D87B8
:100770003E874F87588BBE01675F7F4FCB010E943A
:10078000A9046896EAE00C94891FA8E1B0E0EBECBC
:10079000F3E00C94711F69837A838B839C832D8390
:1007A0003E834F83588789E0E82EF12CEC0EFD1E26
:1007B000CE010196B7010E947E058E010F5E1F4F8C
:1007C000CE010596B8010E947E058985823040F0F1
:1007D0008989823028F0C701B8010E94F60501C05E
:1007E0008FEF6896E6E00C948D1FA8E1B0E0EBEF88
:1007F000F3E00C94711F69837A838B839C832D8330
:100800003E834F83588789E0E82EF12CEC0EFD1EC5
:10081000CE010196B7010E947E058E010F5E1F4F2B
:10082000CE010596B8010E947E058985823040F090
:100830008989823028F0C701B8010E94F60501C0FD
:100840008FEF6896E6E00C948D1FA8E1B0E0EBE234
:10085000F4E00C94711F69837A838B839C832D83CE
:100860003E834F83588789E0E82EF12CEC0EFD1E65
:10087000CE010196B7010E947E058E010F5E1F4FCB
:10088000CE010596B8010E947E058985823040F030
:100890008989823028F0C701B8010E94F60501C09D
:1008A00081E06896E6E00C948D1FACE0B0E0EBE5EB
:1008B000F4E00C94751F69837A838B839C83CE014B
:1008C0000196BE016B5F7F4F0E947E058D81823055
:1008D00061F1823050F1843021F48E81882351F10E
:1008E0002EC02F81388537FD20C06E812F31310514
:1008F0001CF06623F9F023C08EE190E0821B930B7D
:1009000029853A854B855C8504C056954795379572
:1009100027958A95D2F76623B1F05095409530958A
:1009200021953F4F4F4F5F4F0EC020E030E040E039
:1009300050E009C02FEF3FEF4FEF5FE704C020E02A
:1009400030E040E050E8B901CA012C96E2E00C9496
:10095000911FDF92EF92FF920F931F93FC01E480AF
:10096000F58006811781D1808081823048F480E053
:1009700090E0A0E1B0E0E82AF92A0A2B1B2BA5C0E1
:10098000843009F49FC0823021F4EE24FF248701D3
:1009900005C0E114F1040105110519F4E0E0F0E0EF
:1009A00096C0628173819FEF623879070CF05BC05B
:1009B00022E83FEF261B370B2A3131052CF020E0CF
:1009C00030E040E050E02AC0B801A701022E04C088
:1009D00076956795579547950A94D2F781E090E010
:1009E000A0E0B0E004C0880F991FAA1FBB1F2A9582
:1009F000D2F70197A109B1098E219F21A023B1232C
:100A00000097A105B10521F081E090E0A0E0B0E001
:100A10009A01AB01282B392B4A2B5B2BDA01C90138
:100A20008F779070A070B07080349105A105B105EA
:100A300039F427FF09C0205C3F4F4F4F5F4F04C080
:100A4000215C3F4F4F4F5F4FE0E0F0E02030A0E0EF
:100A50003A07A0E04A07A0E45A0710F0E1E0F0E00E
:100A600079018A0127C06038710564F5FB01E158FE
:100A7000FF4FD801C7018F779070A070B07080349D
:100A80009105A105B10539F4E7FE0DC080E490E0C1
:100A9000A0E0B0E004C08FE390E0A0E0B0E0E80E9A
:100AA000F91E0A1F1B1F17FF05C016950795F7941F
:100AB000E794319687E016950795F794E7948A9521
:100AC000D1F705C0EE24FF248701EFEFF0E06E2F91
:100AD000679566276795902F9F77D794DD24D794E5
:100AE0008E2F8695492F462B582F5D29B701CA01B5
:100AF0001F910F91FF90EF90DF900895FC01DB01B3
:100B0000408151812281622F6F7770E0221F22275E
:100B1000221F9381892F880F822B282F30E0991F65
:100B20009927991F11969C93119721153105A9F5C5
:100B3000411551056105710511F482E037C082E865
:100B40009FEF13969C938E9312979A01AB0167E0E7
:100B5000220F331F441F551F6A95D1F783E08C93F2
:100B60000DC0220F331F441F551F12968D919C916B
:100B70001397019713969C938E931297203080E0E1
:100B8000380780E0480780E4580758F314962D93FF
:100B90003D934D935C93179708952F3F310579F45A
:100BA000411551056105710519F484E08C93089590
:100BB00064FF03C081E08C9312C01C9210C02F57B9
:100BC000304013963C932E93129783E08C9387E0EA
:100BD000440F551F661F771F8A95D1F770641496CE
:100BE0004D935D936D937C93179708951F93DC014C
:100BF000FB019C91923008F447C08081823008F458
:100C000043C0943051F411961C91843099F5818140
:100C1000682F70E0611B71093FC0843021F0923071
:100C200031F48230B9F18181882389F12DC0119688
:100C30001C9111978230F1F081811817D9F4129626
:100C40002D913C911397828193818217930794F0A1
:100C500028173907BCF014968D919D910D90BC9189
:100C6000A02D2481358146815781281739074A07ED
:100C70005B0718F4112341F00AC082179307A407F9
:100C8000B50740F4112319F061E070E005C06FEF83
:100C90007FEF02C060E070E0CB011F910895DF9309
:100CA000CF9300D00F92CDB7DEB79B838A8381E0CC
:100CB00089838A819B81009711F419821EC08A81E1
:100CC0009B810E94F00689838A819B810E949507FF
:100CD00089838A819B810E940F0989838A819B81F4
:100CE0000E94DD0789838A819B810E94D0088983C5
:100CF0008A819B810E943807898389810F900F9098
:100D00000F90CF91DF910895DF93CF9300D00F9292
:100D1000CDB7DEB79B838A8381E089838A819B81FB
:100D2000009711F419820AC08A819B810E94F00603
:100D300089838A819B810E949507898389810F908D
:100D40000F900F90CF91DF910895DF93CF93CDB7A0
:100D5000DEB7AAE5B0E0EAE5F0E0808180648C933C
:100D60008091B4009091B500009729F0E091B40013
:100D7000F091B5000995CF91DF910895DF93CF935E
:100D8000CDB7DEB7AAE5B0E0EAE5F0E080818068A3
:100D90008C938091B2009091B300009729F0E0917C
:100DA000B200F091B3000995CF91DF910895DF93E0
:100DB000CF93CDB7DEB7AAE5B0E0EAE5F0E08081F9
:100DC00080628C938091B0009091B100009729F0DF
:100DD000E091B000F091B1000995CF91DF910895B5
:100DE000DF93CF9300D000D00F92CDB7DEB79B83B7
:100DF0008A8381E089838A819B81009711F419821B
:100E00002EC0EA81FB818381282F30E03D832C8333
:100E10008C819D818130910589F02C813D8122302A
:100E20003105A1F08C819D810097C1F4ABE5B0E064
:100E3000EBE5F0E080818F7B8C9311C0ABE5B0E0F7
:100E4000EBE5F0E080818F778C9309C0ABE5B0E0F3
:100E5000EBE5F0E080818F7D8C9301C01982898160
:100E60000F900F900F900F900F90CF91DF910895FA
:100E7000DF93CF9300D000D00F92CDB7DEB79B8326
:100E80008A8381E089838A819B81009711F419828A
:100E900043C0EA81FB818381282F30E03D832C838E
:100EA0008C819D8181309105C1F02C813D81223062
:100EB000310511F18C819D81009769F5AFE5B0E0B6
:100EC000EFE5F0E0808180688C93ABE5B0E0EBE586
:100ED000F0E0808180648C931FC0AFE5B0E0EFE567
:100EE000F0E0808180688C93ABE5B0E0EBE5F0E06A
:100EF000808180688C9310C0AFE5B0E0EFE5F0E052
:100F0000808180688C93ABE5B0E0EBE5F0E0808118
:100F100080628C9301C0198289810F900F900F908D
:100F20000F900F90CF91DF910895DF93CF9300D072
:100F300000D00F92CDB7DEB79B838A8381E089838F
:100F40008A819B81009711F419822EC0EA81FB816E
:100F50008381282F30E03D832C838C819D818130DB
:100F6000910589F02C813D8122303105A1F08C81E1
:100F70009D810097C1F4AAE5B0E0EAE5F0E0808148
:100F800080648C9311C0AAE5B0E0EAE5F0E08081CE
:100F900080688C9309C0AAE5B0E0EAE5F0E08081C2
:100FA00080628C9301C0198289810F900F900F90FD
:100FB0000F900F90CF91DF910895DF93CF9300D0E2
:100FC00000D00F92CDB7DEB79B838A8381E08983FF
:100FD0008A819B81009711F41982D9C0EA81FB8133
:100FE0008381282F30E03D832C838C819D8181304B
:100FF000910509F45DC02C813D812230310509F451
:10100000A9C08C819D81009709F0C0C0EA81FB8155
:101010008281882379F4A5E5B0E0E5E5F0E0808100
:101020008E7F8C93A5E5B0E0E5E5F0E080818D7FD3
:101030008C93ADC0EA81FB818281813079F4A5E592
:10104000B0E0E5E5F0E0808181608C93A5E5B0E05B
:10105000E5E5F0E080818D7F8C9399C0EA81FB818A
:101060008281823079F4A5E5B0E0E5E5F0E08081A9
:101070008E7F8C93A5E5B0E0E5E5F0E080818260AD
:101080008C9385C0EA81FB818281833079F4A5E568
:10109000B0E0E5E5F0E0808181608C93A5E5B0E00B
:1010A000E5E5F0E0808182608C9371C019826FC0A9
:1010B000EA81FB818281882379F4A5E5B0E0E5E54A
:1010C000F0E080818B7F8C93A5E5B0E0E5E5F0E072
:1010D0008081877F8C935BC0EA81FB818281813034
:1010E00079F4A5E5B0E0E5E5F0E0808184608C93DB
:1010F000A5E5B0E0E5E5F0E08081877F8C9347C00F
:10110000EA81FB818281823079F4A5E5B0E0E5E5F2
:10111000F0E080818B7F8C93A5E5B0E0E5E5F0E021
:10112000808188608C9333C0EA81FB818281833027
:1011300079F4A5E5B0E0E5E5F0E0808184608C938A
:10114000A5E5B0E0E5E5F0E0808188608C931FC004
:1011500019821DC0EA81FB818281823041F4A4E5BD
:10116000B0E0E4E5F0E080818F7B8C9310C0EA81F1
:10117000FB818281833041F4A4E5B0E0E4E5F0E056
:10118000808180648C9303C0198201C01982898197
:101190000F900F900F900F900F90CF91DF910895C7
:1011A000DF93CF9300D000D00F92CDB7DEB79B83F3
:1011B0008A8381E089838A819B81009711F4198257
:1011C00025C0EA81FB818381282F30E03D832C8379
:1011D0008C819D818130910571F02C813D8122307F
:1011E000310571F08C819D81009779F48A819B8112
:1011F0000E942C090BC08A819B810E944B0906C06A
:101200008A819B810E946A0901C0198289810F909D
:101210000F900F900F900F90CF91DF910895DF9373
:10122000CF9300D00F92CDB7DEB79B838A8381E046
:1012300089838A819B81009711F4198206C08A8173
:101240009B8104960E94490A898389810F900F909F
:101250000F90CF91DF910895DF93CF9300D00F923D
:10126000CDB7DEB79B838A8381E089838A819B81A6
:10127000009711F4198208C0EA81FB818081918175
:101280009093B5008093B40089810F900F900F90D8
:10129000CF91DF910895DF93CF9300D00F92CDB718
:1012A000DEB79B838A8381E089838A819B81009753
:1012B00011F4198208C0EA81FB81808191819093A9
:1012C000B3008093B20089810F900F900F90CF915F
:1012D000DF910895DF93CF9300D00F92CDB7DEB7A3
:1012E0009B838A8381E089838A819B81009711F4A3
:1012F000198208C0EA81FB81808191819093B100BD
:101300008093B00089810F900F900F90CF91DF9163
:1013100008951F920F920FB60F9211242F933F93AF
:101320004F935F936F937F938F939F93AF93BF93ED
:10133000EF93FF93DF93CF93CDB7DEB7EAE5F0E00D
:1013400080818295869586958370882F90E0817044
:101350009070882379F0EBE5F0E0808182958695A6
:1013600086958370882F90E081709070882311F0AB
:101370000E94A506CF91DF91FF91EF91BF91AF91B0
:101380009F918F917F916F915F914F913F912F919D
:101390000F900FBE0F901F9018951F920F920FB6CF
:1013A0000F9211242F933F934F935F936F937F93EB
:1013B0008F939F93AF93BF93EF93FF93DF93CF935D
:1013C000CDB7DEB7EAE5F0E08081881F8827881F67
:1013D000813051F4EBE5F0E08081881F8827881F79
:1013E000813011F40E94BE06CF91DF91FF91EF9101
:1013F000BF91AF919F918F917F916F915F914F912D
:101400003F912F910F900FBE0F901F9018951F9234
:101410000F920FB60F9211242F933F934F935F9328
:101420006F937F938F939F93AF93BF93EF93FF93AC
:10143000DF93CF93CDB7DEB7EAE5F0E08081829508
:1014400086958770882F90E081709070882371F066
:10145000EBE5F0E08081829586958770882F90E09B
:1014600081709070882311F00E94D706CF91DF9190
:10147000FF91EF91BF91AF919F918F917F916F916C
:101480005F914F913F912F910F900FBE0F901F9042
:101490001895DF93CF9300D000D00F92CDB7DEB771
:1014A0009B838A8381E089838A819B81009761F095
:1014B000EA81FB8180818695869586958770882F45
:1014C00090E08830910514F019827AC0EA81FB819E
:1014D000808182958695869583708170282F30E073
:1014E0003D832C838C819D81009731F02C813D813F
:1014F0002130310599F163C0EA81FB8180818770D9
:10150000882F90E0880F991FFC01E559FF4FA081BB
:10151000B181EA81FB8180818770882F90E0880FFC
:10152000991FFC01E559FF4F0190F081E02D80816A
:10153000482FEA81FB818081869586958695877004
:10154000282F30E081E090E0022E02C0880F991F22
:101550000A94E2F7809584238C9332C0EA81FB8160
:1015600080818770882F90E0880F991FFC01E559D2
:10157000FF4FA081B181EA81FB8180818770882F34
:1015800090E0880F991FFC01E559FF4F0190F08111
:10159000E02D8081482FEA81FB81808186958695A8
:1015A00086958770282F30E081E090E0022E02C0FF
:1015B000880F991F0A94E2F7842B8C9301C019823B
:1015C00089810F900F900F900F900F90CF91DF9126
:1015D0000895DF93CF9300D000D00F92CDB7DEB740
:1015E0009B838A837D836C8381E089838A819B814D
:1015F000009781F0EA81FB818081869586958695AA
:101600008770882F90E08830910524F48C819D812B
:10161000009711F4198225C0EA81FB8180818770CF
:10162000882F90E0880F991FFC01E559FF4F01902A
:10163000F081E02D8081282F30E0EA81FB818081DC
:101640008695869586958770882F90E0A90102C0BF
:10165000559547958A95E2F7CA018170EC81FD8125
:10166000808389810F900F900F900F900F90CF91F2
:10167000DF910895DF93CF9300D000D000D0CDB795
:10168000DEB79B838A836C8381E089838A819B8117
:10169000009761F0EA81FB81808186958695869529
:1016A0008770882F90E08830910514F0198273C0FC
:1016B0008C81282F30E03E832D838D819E81009781
:1016C00031F02D813E812130310599F163C0EA81ED
:1016D000FB8180818770882F90E0880F991FFC0123
:1016E000E558FF4FA081B181EA81FB81808187703D
:1016F000882F90E0880F991FFC01E558FF4F01905B
:10170000F081E02D8081482FEA81FB8180818695E0
:10171000869586958770282F30E081E090E0022E34
:1017200002C0880F991F0A94E2F7809584238C9356
:1017300032C0EA81FB8180818770882F90E0880F1A
:10174000991FFC01E558FF4FA081B181EA81FB811F
:1017500080818770882F90E0880F991FFC01E558E1
:10176000FF4F0190F081E02D8081482FEA81FB81BD
:1017700080818695869586958770282F30E081E058
:1017800090E0022E02C0880F991F0A94E2F7842B82
:101790008C9301C01982898126960FB6F894DEBF1A
:1017A0000FBECDBFCF91DF910895DF93CF9300D0CF
:1017B00000D00F92CDB7DEB79B838A837D836C8385
:1017C00081E089838A819B81009781F0EA81FB8196
:1017D00080818695869586958770882F90E08830E1
:1017E000910524F48C819D81009711F4198225C004
:1017F000EA81FB8180818770882F90E0880F991F94
:10180000FC01ED58FF4F0190F081E02D8081282FE1
:1018100030E0EA81FB818081869586958695877088
:10182000882F90E0A90102C0559547958A95E2F767
:10183000CA018170EC81FD81808389810F900F90B6
:101840000F900F900F90CF91DF910895DF93CF937A
:1018500000D00F92CDB7DEB79B838A8381E0898366
:101860008A819B81009761F0EA81FB818081869566
:10187000869586958770882F90E08830910514F0C2
:10188000198230C0EA81FB8180818770882F90E0C7
:10189000880F991FFC01E558FF4FA081B181EA81B3
:1018A000FB8180818770882F90E0880F991FFC0151
:1018B000E558FF4F0190F081E02D8081482FEA81AB
:1018C000FB8180818695869586958770282F30E0EC
:1018D00081E090E0022E02C0880F991F0A94E2F77F
:1018E00084278C9389810F900F900F90CF91DF9177
:1018F0000895DF93CF9300D00F92CDB7DEB79B83CF
:101900008A8381E089838A819B81009761F0EA81E3
:10191000FB8180818695869586958770882F90E0DB
:101920008830910514F0198212C08A819B810E942F
:10193000490A8983EA81FB818081881F8827881F63
:10194000282F8A819B81622F0E943A0B898389818B
:101950000F900F900F90CF91DF910895DF93CF9369
:1019600000D00F92CDB7DEB78A836B8381E0898385
:101970008A81843010F019820DC08A81882F90E00E
:10198000880F991FFC01E559FF4F0190F081E02D70
:101990008B81808389810F900F900F90CF91DF9181
:1019A0000895DF93CF9300D000D0CDB7DEB78A8300
:1019B0007C836B8381E089838A81843020F48B81EE
:1019C0009C81009711F419820FC08A81882F90E0C2
:1019D000880F991FFC01E559FF4F0190F081E02D20
:1019E0008081EB81FC81808389810F900F900F9023
:1019F0000F90CF91DF910895DF93CF9300D00F9296
:101A0000CDB7DEB78A836B8381E089838A81843096
:101A100010F019820DC08A81882F90E0880F991FDD
:101A2000FC01E558FF4F0190F081E02D8B81808310
:101A300089810F900F900F90CF91DF910895DF93E0
:101A4000CF9300D000D0CDB7DEB78A837C836B8381
:101A500081E089838A81843020F48B819C81009786
:101A600011F419820FC08A81882F90E0880F991F86
:101A7000FC01E558FF4F0190F081E02D8081EB8162
:101A8000FC81808389810F900F900F900F90CF91F0
:101A9000DF910895DF93CF9300D0CDB7DEB78A836F
:101AA00081E089838A81843010F0198218C08A818C
:101AB000882F90E0880F991FFC01E558FF4FA08107
:101AC000B1818A81882F90E0880F991FFC01E55829
:101AD000FF4F0190F081E02D808180958C9389816A
:101AE0000F900F90CF91DF910895DF93CF9300D0A7
:101AF00000D00F92CDB7DEB79C838B836D8381E0DE
:101B00008A838B819C81009741F0EB81FC818081ED
:101B1000918124E08030920710F01A8250C0EFE5E6
:101B2000F0E08081881F8827881F8983AFE3B0E0B9
:101B3000EB81FC8180819181892F992783708C931F
:101B4000AEE3B0E0EB81FC81808191818C93EDE389
:101B5000F0E08D818083AFE5B0E0EFE5F0E08081DB
:101B60008F778C93ACE3B0E0ECE3F0E080818460AD
:101B70008C93ACE3B0E0ECE3F0E0808182608C9386
:101B8000ECE3F0E080818695882F90E08170907082
:101B90008823B1F78981813041F4AFE5B0E0EFE50A
:101BA000F0E0808180688C930AC08981882339F4B1
:101BB000AFE5B0E0EFE5F0E080818F778C938A812C
:101BC0000F900F900F900F900F90CF91DF9108958D
:101BD000DF93CF9300D000D00F92CDB7DEB79B83B9
:101BE0008A837D836C8381E089838A819B810097CE
:101BF00061F08C819D81009741F0EA81FB818081B9
:101C0000918124E08030920710F019821EC0AFE36A
:101C1000B0E0EA81FB8180819181892F99278370CF
:101C20008C93AEE3B0E0EA81FB81808191818C935B
:101C3000ACE3B0E0ECE3F0E0808181608C93EDE315
:101C4000F0E08081EC81FD81808389810F900F908D
:101C50000F900F900F90CF91DF910895DF93CF9366
:101C600000D00F92CDB7DEB79B838A8381E0898352
:101C70008A819B81009711F4198205C08A819B811A
:101C80000E94790C898389810F900F900F90CF91DA
:101C9000DF910895DF93CF9300D000D0CDB7DEB7AA
:101CA0009C838B8381E08A838B819C81009711F4D4
:101CB0001A8208C081E089838B819C8169810E949E
:101CC0003A0B8A838A810F900F900F900F90CF91DB
:101CD000DF910895DF93CF9300D000D0CDB7DEB76A
:101CE0009C838B8381E08A838B819C81009711F494
:101CF0001A8207C019828B819C8169810E943A0BEC
:101D00008A838A810F900F900F900F90CF91DF916F
:101D10000895DF93CF9300D00F92CDB7DEB79B83AA
:101D20008A8381E089838A819B81009711F41982DB
:101D300005C08A819B810E94260C898389810F902E
:101D40000F900F90CF91DF910895DF93CF9300D044
:101D500000D00F92CDB7DEB79B838A837D836C83DF
:101D600081E089838A819B81009721F08C819D810C
:101D7000009711F4198208C08A819B812C813D81D2
:101D8000B9010E94D50B898389810F900F900F9024
:101D90000F900F90CF91DF910895DF93CF9300D0F4
:101DA0000F92CDB7DEB79B838A8381E089838A81D6
:101DB0009B81009711F4198205C08A819B810E9442
:101DC000790C898389810F900F900F90CF91DF91CB
:101DD0000895DF93CF9300D00F92CDB7DEB79B83EA
:101DE0008A8381E089838A819B81009711F419821B
:101DF00006C08A819B8161E00E943A0B89838981B8
:101E00000F900F900F90CF91DF910895DF93CF93B4
:101E100000D00F92CDB7DEB79B838A8381E08983A0
:101E20008A819B81009711F4198206C08A819B8167
:101E300060E00E943A0B898389810F900F900F9088
:101E4000CF91DF910895DF93CF9300D00F92CDB75C
:101E5000DEB79B838A8381E089838A819B81009797
:101E600011F4198205C08A819B810E94260C898306
:101E700089810F900F900F90CF91DF910895DF939C
:101E8000CF9300D000D00F92CDB7DEB79B838A836B
:101E90007D836C8381E089838A819B81009721F017
:101EA0008C819D81009711F4198208C08A819B81E1
:101EB0002C813D81B9010E94D50B898389810F90C6
:101EC0000F900F900F900F90CF91DF910895DF93B7
:101ED000CF9300D000D00F92CDB7DEB79D838C8317
:101EE00081E08B838C819D81009711F41B8227C038
:101EF0001A820DC02C813D818A81882F90E0820F4B
:101F0000931F0E94790C8B838A818F5F8A838A81D9
:101F1000843080F3198210C08C819D819C012C5FDC
:101F20003F4F8981882F90E0820F931F0E94490ABA
:101F30008B8389818F5F89838981843068F38B816A
:101F40000F900F900F900F900F90CF91DF91089509
:101F5000DF93CF93CDB7DEB729970FB6F894DEBFE6
:101F60000FBECDBF9F838E837987688781E08C8386
:101F70008E819F81009721F088859985009711F4C3
:101F80001C827BC01D821B8274C01A820EC02E81EF
:101F90003F818A81882F90E0820F931F60E00E942A
:101FA0003A0B8C838A818F5F8A838A81843078F3AD
:101FB0002E813F818B81882F90E0820F931F61E0FB
:101FC0000E943A0B8C8319824DC08E819F819C01A7
:101FD0002C5F3F4F8981882F90E0820F931F9E01D5
:101FE0002B5F3F4FB9010E94D50B8C83EE81FF819F
:101FF00080858823C1F48D81813089F58B81482FBC
:1020000050E08981282F30E0CA01880F991F880F7E
:10201000991F820F931FFC01ED57FF4F8081E885C8
:10202000F98580831CC0EE81FF8180858130B9F401
:102030008D818823A1F48B81482F50E08981282F3E
:1020400030E0CA01880F991F880F991F820F931FD4
:10205000FC01ED57FF4F8081E885F98580838981F8
:102060008F5F89838981843008F4AFCF8B818F5F44
:102070008B838B81843008F488CF8C8129960FB6AE
:10208000F894DEBF0FBECDBFCF91DF910895DF93EF
:10209000CF9300D00F92CDB7DEB79B838A8381E0C8
:1020A00089838A819B81009711F419820BC08A81F0
:1020B0009B810E94790C89838A819B8101960E9471
:1020C000790C898389810F900F900F90CF91DF91C8
:1020D0000895DF93CF9300D000D00F92CDB7DEB735
:1020E0009D838C8381E08B838C819D81009711F48B
:1020F0001B8210C081E08A8319828C819D816A8154
:102100000E943A0B8B838C819D81019669810E948C
:102110003A0B8B838B810F900F900F900F900F9045
:10212000CF91DF910895DF93CF9300D000D00F922D
:10213000CDB7DEB79D838C8381E08B838C819D81BD
:10214000009711F41B8210C01A8281E089838C8170
:102150009D816A810E943A0B8B838C819D810196BF
:1021600069810E943A0B8B838B810F900F900F90A7
:102170000F900F90CF91DF910895DF93CF9300D010
:1021800000D00F92CDB7DEB79D838C8381E08B8327
:102190008C819D81009711F41B820FC01A821982D5
:1021A0008C819D816A810E943A0B8B838C819D81F9
:1021B000019669810E943A0B8B838B810F900F905F
:1021C0000F900F900F90CF91DF910895DF93CF93F1
:1021D000CDB7DEB727970FB6F894DEBF0FBECDBFE1
:1021E0009D838C837F836E8381E089838C819D8135
:1021F000009721F08E819F81009711F419822EC0E3
:102200001A821B828C819D819E012E5F3F4FB901F6
:102210000E94D50B89838C819D8101969E012D5F43
:102220003F4FB9010E94D50B89838A81813041F4E7
:102230008B81882329F4EE81FF8181E080830EC0A9
:102240008A81882341F48B81813029F4EE81FF81DA
:1022500082E0808303C0EE81FF811082898127960E
:102260000FB6F894DEBF0FBECDBFCF91DF910895BA
:10227000DF93CF93CDB7DEB7E9970FB6F894DEBF03
:102280000FBECDBF99AF88AF81E08FAB88AD99AD60
:10229000009711F41FAAFCC188AD99AD0E94790C7A
:1022A0008FAB88AD99AD01960E94790C8FAB1EAAB9
:1022B0001DAA11C088AD99AD9C012E5F3F4F8DA91D
:1022C0009EA9820F931F0E94790C8FAB8DA99EA9A6
:1022D00001969EAB8DAB8DA99EA98430910554F3D8
:1022E00080E090E0A0EAB1E489AB9AABABABBCABC9
:1022F00069A97AA98BA99CA920E030E04AEF54E4AF
:102300000E941F02DC01CB018DA79EA7AFA7B8AB2F
:102310006DA57EA58FA598A920E030E040E85FE399
:102320000E94250488232CF481E090E09CA78BA7D1
:102330003FC06DA57EA58FA598A920E03FEF4FE790
:1023400057E40E94C50318164CF569A97AA98BA910
:102350009CA920E030E040E251E40E941F02DC0131
:10236000CB01BC01CD010E944900DC01CB019CA73F
:102370008BA70FC088EC90E09AA789A789A59AA59A
:102380000197F1F79AA789A78BA59CA501979CA710
:102390008BA78BA59CA5009769F714C06DA57EA59A
:1023A0008FA598A90E944900DC01CB019CA78BA7AF
:1023B0008BA59CA598A78FA38FA198A50197F1F74E
:1023C00098A78FA388AD99AD68E30E9452138FAB95
:1023D00080E090E0A0EAB0E48BA39CA3ADA3BEA3F1
:1023E0006BA17CA18DA19EA120E030E04AEF54E4D6
:1023F0000E941F02DC01CB018F8F98A3A9A3BAA36F
:102400006F8D78A189A19AA120E030E040E85FE3D8
:102410000E94250488232CF481E090E09E8F8D8F0C
:102420003FC06F8D78A189A19AA120E03FEF4FE7CF
:1024300057E40E94C50318164CF56BA17CA18DA131
:102440009EA120E030E040E251E40E941F02DC0146
:10245000CB01BC01CD010E944900DC01CB019E8F64
:102460008D8F0FC088EC90E09C8F8B8F8B8D9C8D17
:102470000197F1F79C8F8B8F8D8D9E8D01979E8F8D
:102480008D8F8D8D9E8D009769F714C06F8D78A10B
:1024900089A19AA10E944900DC01CB019E8F8D8FFA
:1024A0008D8D9E8D9A8F898F898D9A8D0197F1F7E9
:1024B0009A8F898F88AD99AD68E30E9452138FABD4
:1024C00080E090E0A6E1B3E48D8B9E8BAF8BB88F5C
:1024D0006D897E898F89988D2BEA3AEA4AE250E429
:1024E0000E941F02DC01CB01898B9A8BAB8BBC8BCA
:1024F00069897A898B899C8920E030E040E85FE334
:102500000E94250488231CF481E0888B91C069898E
:102510007A898B899C8920E030E04FE753E40E9460
:10252000C50318160CF07BC06D897E898F89988D44
:1025300020E030E04AE754E40E941903DC01CB01BB
:102540008C879D87AE87BF876C857D858E859F85AF
:1025500020E030E04AEF54E40E941F02DC01CB018E
:1025600088879987AA87BB87688579858A859B85AF
:1025700020E030E040E85FE30E94250488232CF44B
:1025800081E090E09F838E833FC0688579858A854E
:102590009B8520E03FEF4FE757E40E94C5031816E4
:1025A0004CF56C857D858E859F8520E030E040E28E
:1025B00051E40E941F02DC01CB01BC01CD010E944D
:1025C0004900DC01CB019F838E830FC088EC90E033
:1025D0009D838C838C819D810197F1F79D838C83F2
:1025E0008E819F8101979F838E838E819F8100972B
:1025F00069F724C0688579858A859B850E94490092
:10260000DC01CB019F838E838E819F819B838A8394
:102610008A819B810197F1F79B838A830FC0698927
:102620007A898B899C890E944900DC01CB01888BC7
:102630008889898389818A95F1F7898388AD99ADE5
:1026400068E30E9452138FAB88AD99AD61E00E94A0
:1026500052138FAB88AD99AD62E00E9452138FABDD
:1026600088AD99AD66E00E9452138FAB88AD99ADED
:102670006CE00E9452138FAB88AD99AD68E20E9466
:1026800052138FAB88AD99AD60E80E9452138FABA7
:102690008FA9E9960FB6F894DEBF0FBECDBFCF91DC
:1026A000DF910895DF93CF9300D000D0CDB7DEB790
:1026B0009B838A836C8381E089838A819B810097D5
:1026C00011F4198220C08A819B8160E00E943A0B3C
:1026D00089838C81282F22952F708A819B81622F7C
:1026E0000E94241989838A819B810E9467198983AA
:1026F0008A819B816C810E94241989838A819B81B4
:102700000E946719898389810F900F900F900F9015
:10271000CF91DF910895DF93CF9300D000D0CDB754
:10272000DEB79B838A836C8381E089838A819B8166
:10273000009711F4198220C08A819B8161E00E9478
:102740003A0B89838C81282F22952F708A819B8157
:10275000622F0E94241989838A819B810E946719B4
:1027600089838A819B816C810E94241989838A8153
:102770009B810E946719898389810F900F900F9028
:102780000F90CF91DF910895DF93CF9300D000D0C9
:1027900000D0CDB7DEB79B838A836C834D832E83B5
:1027A00081E089838A819B81009711F419820DC091
:1027B0008A819B816D814E810E94511A89838A8111
:1027C0009B816C810E948B138983898126960FB629
:1027D000F894DEBF0FBECDBFCF91DF910895DF9398
:1027E000CF9300D000D00F92CDB7DEB79B838A8302
:1027F0007D836C8381E089838A819B81009721F0AE
:102800008C819D81009781F4198213C0EC81FD8138
:1028100020818C819D8101969D838C838A819B81FF
:10282000622F0E948B138983EC81FD818081882334
:1028300069F789810F900F900F900F900F90CF91B3
:10284000DF910895DF93CF93CDB7DEB727970FB60B
:10285000F894DEBF0FBECDBF9B838A837D836C83DC
:102860004E832F8381E089838A819B81009721F0A9
:102870008C819D810097B1F4198219C0EC81FD8192
:1028800020818C819D8101969D838C833F818F81E6
:102890008F5F8F838A819B81622F4E81232F0E94BD
:1028A000C4138983EC81FD818081882339F7898174
:1028B00027960FB6F894DEBF0FBECDBFCF91DF9144
:1028C00008950F93DF93CF93CDB7DEB72A970FB656
:1028D000F894DEBF0FBECDBF9D838C836E834F8384
:1028E000398728870A8781E08B838C819D810097B7
:1028F00011F41B8234C08A85882F90E00896880FD7
:10290000991F880F991F880F991F282F8C819D81EF
:10291000622F0E9452138B831A82198213C029815D
:102920003A8188859985FC01E20FF31F20818C8113
:102930009D81622F0E948B138B8389819A810196DE
:102940009A83898389819A818830910544F38C81A7
:102950009D816A854E812F810E94C4138B838B8158
:102960002A960FB6F894DEBF0FBECDBFCF91DF9190
:102970000F910895DF93CF93CDB7DEB7E9970FB6E8
:10298000F894DEBF0FBECDBF99AF88AF81E08FABAB
:1029900088AD99AD009711F41FAA02C288AD99AD18
:1029A0000E94790C8FAB88AD99AD01960E94790C8D
:1029B0008FAB1EAA1DAA11C088AD99AD9C012E5FD8
:1029C0003F4F8DA99EA9820F931F0E94790C8FAB58
:1029D0008DA99EA901969EAB8DAB8DA99EA988302D
:1029E000910554F380E090E0A0EAB1E489AB9AABA2
:1029F000ABABBCAB69A97AA98BA99CA920E030E05C
:102A00004AEF54E40E941F02DC01CB018DA79EA770
:102A1000AFA7B8AB6DA57EA58FA598A920E030E043
:102A200040E85FE30E94250488232CF481E090E0D5
:102A30009CA78BA73FC06DA57EA58FA598A920E078
:102A40003FEF4FE757E40E94C50318164CF569A9FC
:102A50007AA98BA99CA920E030E040E251E40E94D1
:102A60001F02DC01CB01BC01CD010E944900DC0149
:102A7000CB019CA78BA70FC088EC90E09AA789A7F1
:102A800089A59AA50197F1F79AA789A78BA59CA577
:102A900001979CA78BA78BA59CA5009769F714C0ED
:102AA0006DA57EA58FA598A90E944900DC01CB01E8
:102AB0009CA78BA78BA59CA598A78FA38FA198A552
:102AC0000197F1F798A78FA388AD99AD60E00E94B8
:102AD0003A0B8FAB88AD99AD68E30E94DA168FABE5
:102AE00080E090E0A0EAB0E48BA39CA3ADA3BEA3DA
:102AF0006BA17CA18DA19EA120E030E04AEF54E4BF
:102B00000E941F02DC01CB018F8F98A3A9A3BAA357
:102B10006F8D78A189A19AA120E030E040E85FE3C1
:102B20000E94250488232CF481E090E09E8F8D8FF5
:102B30003FC06F8D78A189A19AA120E03FEF4FE7B8
:102B400057E40E94C50318164CF56BA17CA18DA11A
:102B50009EA120E030E040E251E40E941F02DC012F
:102B6000CB01BC01CD010E944900DC01CB019E8F4D
:102B70008D8F0FC088EC90E09C8F8B8F8B8D9C8D00
:102B80000197F1F79C8F8B8F8D8D9E8D01979E8F76
:102B90008D8F8D8D9E8D009769F714C06F8D78A1F4
:102BA00089A19AA10E944900DC01CB019E8F8D8FE3
:102BB0008D8D9E8D9A8F898F898D9A8D0197F1F7D2
:102BC0009A8F898F88AD99AD68E30E94DA168FAB32
:102BD00080E090E0A6E1B3E48D8B9E8BAF8BB88F45
:102BE0006D897E898F89988D2BEA3AEA4AE250E412
:102BF0000E941F02DC01CB01898B9A8BAB8BBC8BB3
:102C000069897A898B899C8920E030E040E85FE31C
:102C10000E94250488231CF481E0888B91C0698977
:102C20007A898B899C8920E030E04FE753E40E9449
:102C3000C50318160CF07BC06D897E898F89988D2D
:102C400020E030E04AE754E40E941903DC01CB01A4
:102C50008C879D87AE87BF876C857D858E859F8598
:102C600020E030E04AEF54E40E941F02DC01CB0177
:102C700088879987AA87BB87688579858A859B8598
:102C800020E030E040E85FE30E94250488232CF434
:102C900081E090E09F838E833FC0688579858A8537
:102CA0009B8520E03FEF4FE757E40E94C5031816CD
:102CB0004CF56C857D858E859F8520E030E040E277
:102CC00051E40E941F02DC01CB01BC01CD010E9436
:102CD0004900DC01CB019F838E830FC088EC90E01C
:102CE0009D838C838C819D810197F1F79D838C83DB
:102CF0008E819F8101979F838E838E819F81009714
:102D000069F724C0688579858A859B850E9449007A
:102D1000DC01CB019F838E838E819F819B838A837D
:102D20008A819B810197F1F79B838A830FC0698910
:102D30007A898B899C890E944900DC01CB01888BB0
:102D40008889898389818A95F1F7898388AD99ADCE
:102D500068E30E94DA168FAB88AD99AD61E00E94FE
:102D6000DA168FAB88AD99AD62E00E94DA168FABB0
:102D700088AD99AD66E00E94DA168FAB88AD99AD4B
:102D80006CE00E94DA168FAB88AD99AD68E30E94C3
:102D9000DA168FAB88AD99AD60E80E94DA168FAB7A
:102DA0008FA9E9960FB6F894DEBF0FBECDBFCF91C5
:102DB000DF910895DF93CF9300D000D000D0CDB73E
:102DC000DEB79D838C836E8381E08B838C819D81B4
:102DD000009711F41B8232C08C819D8160E00E94BB
:102DE0003A0B8B831A8219821FC08C819D819C01B2
:102DF0002E5F3F4F89819A81A901480F591F8E810B
:102E0000882F90E0098002C0959587950A94E2F793
:102E1000282F2170CA01622F0E943A0B8B8389816F
:102E20009A8101969A83898389819A818830910554
:102E3000E4F28C819D810E94C31A8B838B8126963C
:102E40000FB6F894DEBF0FBECDBFCF91DF910895CE
:102E5000DF93CF9300D000D000D0CDB7DEB79D83F5
:102E60008C836E8381E08B838C819D81009711F42C
:102E70001B8232C08C819D8161E00E943A0B8B8362
:102E80001A8219821FC08C819D819C012E5F3F4F49
:102E900089819A81A901480F591F8E81882F90E05E
:102EA000098002C0959587950A94E2F7282F217032
:102EB000CA01622F0E943A0B8B8389819A81019605
:102EC0009A83898389819A8188309105E4F28C8183
:102ED0009D810E94C31A8B838B8126960FB6F8942E
:102EE000DEBF0FBECDBFCF91DF910895DF93CF93AB
:102EF00000D000D000D0CDB7DEB79B838A836C832F
:102F00004D832E8381E089838A819B81009711F410
:102F100019820DC08A819B816D814E810E94AD1BFB
:102F200089838A819B816C810E942817898389818A
:102F300026960FB6F894DEBF0FBECDBFCF91DF91BE
:102F40000895DF93CF9300D000D00F92CDB7DEB7B6
:102F50009B838A837D836C8381E089838A819B81C3
:102F6000009721F08C819D81009779F4198212C01D
:102F7000EC81FD8120818C819D8101969D838C83D4
:102F80008A819B81622F0E942817EC81FD818081BC
:102F9000882371F789810F900F900F900F900F90F9
:102FA000CF91DF910895DF93CF93CDB7DEB7279709
:102FB0000FB6F894DEBF0FBECDBF9B838A837D839F
:102FC0006C834E832F8381E089838A819B81009764
:102FD00021F08C819D810097A9F4198218C0EC81A1
:102FE000FD8120818C819D8101969D838C833F8111
:102FF0008F818F5F8F838A819B81622F4E81232FE8
:103000000E947617EC81FD818081882341F78981B8
:1030100027960FB6F894DEBF0FBECDBFCF91DF91DC
:1030200008950F93DF93CF93CDB7DEB72A970FB6EE
:10303000F894DEBF0FBECDBF9D838C836E834F831C
:10304000398728870A8781E08B838C819D8100974F
:1030500011F41B8234C08A85882F90E00896880F6F
:10306000991F880F991F880F991F282F8C819D8188
:10307000622F0E94DA168B831A82198213C029816B
:103080003A8188859985FC01E20FF31F20818C81AC
:103090009D81622F0E9428178B8389819A810196D6
:1030A0009A83898389819A818830910544F38C8140
:1030B0009D816A854E812F810E9476178B838B813B
:1030C0002A960FB6F894DEBF0FBECDBFCF91DF9129
:1030D0000F910895DF93CF9300D000D0CDB7DEB726
:1030E0008A837C836B8381E089838B819C810097B9
:1030F00011F4198225C08B819C8160E070E044E06E
:1031000050E00E949C1F8A81282F30E000D000D020
:1031100000D0EDB7FEB731968B819C81918380837F
:1031200080E690E093838283358324830E94A31FEB
:103130008DB79EB706960FB6F8949EBF0FBE8DBF93
:1031400089810F900F900F900F90CF91DF9108958C
:10315000DF93CF9300D000D0CDB7DEB78A837C83D6
:103160006B8381E089838B819C81009711F41982A4
:1031700025C08B819C8160E070E046E050E00E94B9
:103180009C1F8A81282F30E000D000D000D0EDB7FE
:10319000FEB731968B819C819183808380E690E09D
:1031A00093838283358324830E94A31F8DB79EB7A8
:1031B00006960FB6F8949EBF0FBE8DBF89810F9003
:1031C0000F900F900F90CF91DF910895DF93CF93E1
:1031D00000D000D0CDB7DEB78A837C836B8381E0DB
:1031E00089838B819C81009711F4198225C08B8182
:1031F0009C8160E070E04BE050E00E949C1F8A815F
:10320000282F30E000D000D000D0EDB7FEB73196C7
:103210008B819C819183808380E690E0938382837D
:10322000358324830E94A31F8DB79EB706960FB6E1
:10323000F8949EBF0FBE8DBF89810F900F900F90A5
:103240000F90CF91DF910895DF93CF9300D000D0FE
:1032500000D0CDB7DEB79D838C836E8381E08B83F6
:103260008C819D81009711F41B8227C01A821982DC
:103270001FC08C819D819C012E5F3F4F89819A8167
:10328000A901480F591F8E81882F90E0098002C044
:10329000959587950A94E2F7282F2170CA01622F2D
:1032A0000E943A0B8B8389819A8101969A83898344
:1032B00089819A8184309105E4F28B8126960FB63C
:1032C000F894DEBF0FBECDBFCF91DF910895DF939D
:1032D000CF93CDB7DEB76B970FB6F894DEBF0FBEB6
:1032E000CDBF9B8F8A8F81E0898F8A8D9B8D0097C0
:1032F00011F4198ECCC08A8D9B8D019661E00E94DD
:103300003A0B898F80E090E0A0EAB0E48D8B9E8B31
:10331000AF8BB88F6D897E898F89988D2BEA3AEAB9
:103320004AE250E40E941F02DC01CB01898B9A8B98
:10333000AB8BBC8B69897A898B899C8920E030E0D2
:1033400040E85FE30E94250488231CF481E0888B19
:1033500091C069897A898B899C8920E030E04FE7A8
:1033600053E40E94C50318160CF07BC06D897E895A
:103370008F89988D20E030E04AE754E40E941903D9
:10338000DC01CB018C879D87AE87BF876C857D85EF
:103390008E859F8520E030E04AEF54E40E941F02B2
:1033A000DC01CB0188879987AA87BB8768857985E7
:1033B0008A859B8520E030E040E85FE30E94250499
:1033C00088232CF481E090E09F838E833FC0688542
:1033D00079858A859B8520E03FEF4FE757E40E947F
:1033E000C50318164CF56C857D858E859F8520E07C
:1033F00030E040E251E40E941F02DC01CB01BC013D
:10340000CD010E944900DC01CB019F838E830FC058
:1034100088EC90E09D838C838C819D810197F1F7EE
:103420009D838C838E819F8101979F838E838E8164
:103430009F81009769F724C0688579858A859B8577
:103440000E944900DC01CB019F838E838E819F8186
:103450009B838A838A819B810197F1F79B838A836F
:103460000FC069897A898B899C890E944900DC0197
:10347000CB01888B8889898389818A95F1F7898333
:103480008A8D9B8D019660E00E943A0B898F898D11
:103490006B960FB6F894DEBF0FBECDBFCF91DF9114
:1034A0000895DF93CF93CDB7DEB727970FB6F89483
:1034B000DEBF0FBECDBF9B838A836C834D8381E0CB
:1034C00089838A819B81009711F4198252C08A8175
:1034D0009B8160E00E943A0B89838D8181508D83AE
:1034E0008C81282F30E03F832E838E819F81823014
:1034F000910501F12E813F812330310534F48E8115
:103500009F818130910561F033C02E813F8123304E
:103510003105D1F08E819F8184309105F9F028C06A
:103520008D81282F20588A819B81622F0E945213FF
:1035300089831FC08D81282F20548A819B81622F0F
:103540000E945213898315C08D81282F2C568A81A1
:103550009B81622F0E94521389830BC08D81282F7B
:103560002C528A819B81622F0E945213898301C051
:103570001982898127960FB6F894DEBF0FBECDBFA2
:10358000CF91DF910895DF93CF93CDB7DEB76B97DF
:103590000FB6F894DEBF0FBECDBF9B8F8A8F81E040
:1035A000898F8A8D9B8D009711F4198ECCC08A8DDE
:1035B0009B8D019661E00E943A0B898F80E090E03C
:1035C000A0EAB0E48D8B9E8BAF8BB88F6D897E891E
:1035D0008F89988D2BEA3AEA4AE250E40E941F0252
:1035E000DC01CB01898B9A8BAB8BBC8B69897A8987
:1035F0008B899C8920E030E040E85FE30E9425044D
:1036000088231CF481E0888B91C069897A898B8931
:103610009C8920E030E04FE753E40E94C503181670
:103620000CF07BC06D897E898F89988D20E030E019
:103630004AE754E40E941903DC01CB018C879D8783
:10364000AE87BF876C857D858E859F8520E030E0C5
:103650004AEF54E40E941F02DC01CB01888799875E
:10366000AA87BB87688579858A859B8520E030E0BD
:1036700040E85FE30E94250488232CF481E090E079
:103680009F838E833FC0688579858A859B8520E0EE
:103690003FEF4FE757E40E94C50318164CF56C85C1
:1036A0007D858E859F8520E030E040E251E40E94D8
:1036B0001F02DC01CB01BC01CD010E944900DC01ED
:1036C000CB019F838E830FC088EC90E09D838C8319
:1036D0008C819D810197F1F79D838C838E819F81E1
:1036E00001979F838E838E819F81009769F724C005
:1036F000688579858A859B850E944900DC01CB011C
:103700009F838E838E819F819B838A838A819B8105
:103710000197F1F79B838A830FC069897A898B8926
:103720009C890E944900DC01CB01888B88898983B0
:1037300089818A95F1F789838A8D9B8D019660E056
:103740000E943A0B898F898D6B960FB6F894DEBF75
:103750000FBECDBFCF91DF910895DF93CF93CDB74B
:10376000DEB727970FB6F894DEBF0FBECDBF9B83A1
:103770008A836C834D8381E089838A819B81009752
:1037800011F4198252C08A819B8160E00E943A0B39
:1037900089838D8181508D838C81282F30E03F83F8
:1037A0002E838E819F818230910501F12E813F8190
:1037B0002330310534F48E819F818130910561F091
:1037C00033C02E813F8123303105D1F08E819F811E
:1037D00084309105F9F028C08D81282F20588A81E6
:1037E0009B81622F0E94DA1689831FC08D81282F4A
:1037F00020548A819B81622F0E94DA16898315C02A
:103800008D81282F2C568A819B81622F0E94DA1687
:1038100089830BC08D81282F2C528A819B81622F36
:103820000E94DA16898301C01982898127960FB612
:10383000F894DEBF0FBECDBFCF91DF910895DF9327
:10384000CF9300D00F92CDB7DEB79B838A8381E000
:1038500089838A819B81009711F4198205C08A812E
:103860009B810E94490A898389810F900F900F9054
:10387000CF91DF910895DF93CF9300D000D000D097
:10388000CDB7DEB79C838B837E836D8381E0898394
:103890008B819C81009721F08D819E81009711F48E
:1038A00019822DC01A828B819C819E012E5F3F4F11
:1038B000B9010E94D50B8983EB81FC81818188232A
:1038C00061F48A81813021F4ED81FE81108217C07C
:1038D000ED81FE8181E0808312C0EB81FC818181DA
:1038E000813061F48A81813029F4ED81FE8181E0AB
:1038F000808305C0ED81FE81108201C0198289811B
:1039000026960FB6F894DEBF0FBECDBFCF91DF91E4
:103910000895DF93CF9300D000D00F92CDB7DEB7DC
:103920009D838C8381E08B838C819D81009711F432
:103930001B8216C01A8219820EC02C813D8189819A
:103940009A81820F931F0E94790C8B8389819A81BF
:1039500001969A83898389819A81843091056CF3D9
:103960008B810F900F900F900F900F90CF91DF9160
:103970000895DF93CF9300D000D000D0CDB7DEB74D
:103980009D838C836E8381E08B838C819D810097E6
:1039900019F08E818A3010F01B8224C01A8219829D
:1039A0001CC02C813D8189819A81A901480F591F32
:1039B0008E81882F90E0098002C0959587950A94A2
:1039C000E2F7282F2170CA01622F0E943A0B8B83E5
:1039D00089819A8101969A83898389819A81843029
:1039E0009105FCF28B8126960FB6F894DEBF0FBED0
:1039F000CDBFCF91DF910895DF93CF930F92CDB7D5
:103A0000DEB7198283E990E00E943811898389E941
:103A100090E00E94BA1489830F90CF91DF910895AE
:103A2000DF93CF93CDB7DEB70E94431D83EA90E0CA
:103A30000E944F068093AE0088EA90E00E94CD0E6F
:103A40008093AE0089EA90E00E94CD0E8093AE0094
:103A50008BEA90E060E40E94750D8093AE008BEAE3
:103A600090E02FEA30E0B9010E94E80D8093AE00AB
:103A70008091AF008034E1F788EA90E00E94230F44
:103A80008093AE00F5CFDF93CF93CDB7DEB70E9422
:103A9000FC1CCF91DF910895DF93CF93CDB7DEB7B4
:103AA000CF91DF910895DF93CF93CDB7DEB76C97B9
:103AB0000FB6F894DEBF0FBECDBF88EA90E00E943B
:103AC000E90E8093AE0089EA90E00E94060F809391
:103AD000AE0080E090E0A8ECB2E4898F9A8FAB8FC3
:103AE000BC8F698D7A8D8B8D9C8D20E030E04AEF04
:103AF00054E40E941F02DC01CB018D8B9E8BAF8BA7
:103B0000B88F6D897E898F89988D20E030E040E8FC
:103B10005FE30E94250488232CF481E090E09C8BD5
:103B20008B8B3FC06D897E898F89988D20E03FEF18
:103B30004FE757E40E94C50318164CF5698D7A8D3E
:103B40008B8D9C8D20E030E040E251E40E941F020A
:103B5000DC01CB01BC01CD010E944900DC01CB019D
:103B60009C8B8B8B0FC088EC90E09A8B898B89891A
:103B70009A890197F1F79A8B898B8B899C89019798
:103B80009C8B8B8B8B899C89009769F714C06D89FE
:103B90007E898F89988D0E944900DC01CB019C8B26
:103BA0008B8B8B899C89988B8F878F8598890197C0
:103BB000F1F7988B8F8788EA90E00E94060F809338
:103BC000AE0080E090E0A8ECB2E48B879C87AD87E4
:103BD000BE876B857C858D859E8520E030E04AEF31
:103BE00054E40E941F02DC01CB018F839887A987D0
:103BF000BA876F81788589859A8520E030E040E832
:103C00005FE30E94250488232CF481E090E09E83EA
:103C10008D833FC06F81788589859A8520E03FEF4D
:103C20004FE757E40E94C50318164CF56B857C8559
:103C30008D859E8520E030E040E251E40E941F0225
:103C4000DC01CB01BC01CD010E944900DC01CB01AC
:103C50009E838D830FC088EC90E09C838B838B8147
:103C60009C810197F1F79C838B838D819E810197C5
:103C70009E838D838D819E81009769F714C06F812B
:103C8000788589859A850E944900DC01CB019E8355
:103C90008D838D819E819A83898389819A81019701
:103CA000F1F79A8389836C960FB6F894DEBF0FBE46
:103CB000CDBFCF91DF910895DF93CF93CDB7DEB71E
:103CC0006C970FB6F894DEBF0FBECDBF89EA90E0C7
:103CD0000E94E90E8093AE0088EA90E00E94060FF1
:103CE0008093AE0080E090E0A8ECB2E4898F9A8FD8
:103CF000AB8FBC8F698D7A8D8B8D9C8D20E030E0F1
:103D00004AEF54E40E941F02DC01CB018D8B9E8B95
:103D1000AF8BB88F6D897E898F89988D20E030E0D8
:103D200040E85FE30E94250488232CF481E090E0C2
:103D30009C8B8B8B3FC06D897E898F89988D20E00D
:103D40003FEF4FE757E40E94C50318164CF5698D05
:103D50007A8D8B8D9C8D20E030E040E251E40E9412
:103D60001F02DC01CB01BC01CD010E944900DC0136
:103D7000CB019C8B8B8B0FC088EC90E09A8B898B4E
:103D800089899A890197F1F79A8B898B8B899C890C
:103D900001979C8B8B8B8B899C89009769F714C04A
:103DA0006D897E898F89988D0E944900DC01CB0145
:103DB0009C8B8B8B8B899C89988B8F878F8598891F
:103DC0000197F1F7988B8F8789EA90E00E94060FA0
:103DD0008093AE0080E090E0A8ECB2E48B879C87F3
:103DE000AD87BE876B857C858D859E8520E030E024
:103DF0004AEF54E40E941F02DC01CB018F839887B5
:103E0000A987BA876F81788589859A8520E030E017
:103E100040E85FE30E94250488232CF481E090E0D1
:103E20009E838D833FC06F81788589859A8520E048
:103E30003FEF4FE757E40E94C50318164CF56B851A
:103E40007C858D859E8520E030E040E251E40E9433
:103E50001F02DC01CB01BC01CD010E944900DC0145
:103E6000CB019E838D830FC088EC90E09C838B8375
:103E70008B819C810197F1F79C838B838D819E813F
:103E800001979E838D838D819E81009769F714C071
:103E90006F81788589859A850E944900DC01CB0174
:103EA0009E838D838D819E819A83898389819A8166
:103EB0000197F1F79A8389836C960FB6F894DEBF69
:103EC0000FBECDBFCF91DF9108952F923F924F92B9
:103ED0005F926F927F928F929F92AF92BF92CF929A
:103EE000DF92EF92FF920F931F93CF93DF93CDB7A3
:103EF000DEB7CA1BDB0B0FB6F894DEBF0FBECDBF1B
:103F000009942A88398848885F846E847D848C84EB
:103F10009B84AA84B984C884DF80EE80FD800C81F4
:103F20001B81AA81B981CE0FD11D0FB6F894DEBFD7
:103F30000FBECDBFED010895DC0101C06D9341506E
:103F40005040E0F70895AEE0B0E0E9EAFFE10C94FC
:103F5000731F0D891E8986E08C831A8309838FEF76
:103F60009FE79E838D839E01275E3F4FCE01019682
:103F70006F89788DA9010E94C71F2F813885020F94
:103F8000131FF80110822E96E4E00C948F1FABE013
:103F9000B0E0EDECFFE10C94651F3C012B015A01F0
:103FA000FC0117821682838181FD03C06FEF7FEFD2
:103FB000C6C19AE0892E1E010894211C311CF30110
:103FC0002381F20123FD859123FF81912F01882315
:103FD00009F4B2C1853239F423FD859123FF819123
:103FE0002F01853229F490E0B3010E94BA21E7CF76
:103FF000982FFF24EE249924FFE1FF15D0F09B3287
:1040000069F09C3228F4903259F0933291F40EC04A
:104010009D3249F0903369F441E024C052E0F52A22
:1040200084E0F82A28C098E0F92A25C0E0E1FE2AB9
:1040300022C0F7FC29C0892F80538A3070F4F6FE25
:1040400005C0989C902C1124980E15C0E89CE02C7B
:104050001124E80EF0E2FF2A0EC09E3229F4F6FC8D
:104060006BC140E4F42A07C09C3619F450E8F52AE5
:1040700002C0983649F4F20123FD959123FF9191F6
:104080002F01992309F0B8CF892F8554833018F078
:104090008052833038F444E050E0A40EB51E5FE354
:1040A00059830FC0933631F0933779F0933509F087
:1040B00056C020C0F5018081898342E050E0A40E03
:1040C000B51E610101E010E012C0F501C080D18091
:1040D000F6FC03C06FEF7FEF02C0692D70E042E095
:1040E00050E0A40EB51EC6010E94AF218C015FE70F
:1040F000F52214C0F501C080D180F6FC03C06FEF3B
:104100007FEF02C0692D70E042E050E0A40EB51EC2
:10411000C6010E94A4218C0150E8F52AF3FE07C0D5
:104120001AC080E290E0B3010E94BA21EA948E2D79
:1041300090E008171907A8F30EC0F601F7FC859167
:10414000F7FE81916F0190E0B3010E94BA21E11066
:10415000EA94015010400115110579F7EAC0943630
:1041600011F0993669F5F7FE08C0F501208131811B
:104170004281538184E090E00AC0F5018081918101
:104180009C01442737FD4095542F82E090E0A80E13
:10419000B91E9FE6F92257FF09C05095409530950A
:1041A00021953F4F4F4F5F4FE0E8FE2ACA01B9010A
:1041B000A1012AE030E00E94E621D82ED21840C0AA
:1041C000953729F41F2D1F7E2AE030E01DC01F2DDA
:1041D000197F9F3661F0903720F4983509F0ACC014
:1041E0000FC0903739F0983709F0A6C004C028E016
:1041F00030E00AC0106114FD146020E130E004C01A
:1042000014FD166020E132E017FF08C0F50160815F
:1042100071818281938144E050E008C0F501808182
:104220009181BC0180E090E042E050E0A40EB51E18
:10423000A1010E94E621D82ED2188FE7F82EF12294
:10424000F6FE0BC05EEFF522D91438F4F4FE07C079
:10425000F2FC05C08FEEF82202C01D2D01C0192D01
:10426000F4FE0DC0FE01ED0DF11D8081803319F4C7
:1042700099EEF92208C01F5FF2FE05C003C08F2D22
:10428000867809F01F5F0F2DF3FC14C0F0FE0FC0FD
:104290001E1510F09D2C0BC09D2C9E0C911A1E2DEE
:1042A00006C080E290E0B3010E94BA211F5F1E1594
:1042B000C0F304C01E1510F4E11A01C0EE2404FF7F
:1042C0000FC080E390E0B3010E94BA2102FF1DC03D
:1042D00001FD03C088E790E00EC088E590E00BC0C8
:1042E000802F867891F001FF02C08BE201C080E24E
:1042F000F7FC8DE290E0B3010E94BA2106C080E392
:1043000090E0B3010E94BA219A94D914C0F3DA94D0
:10431000F101ED0DF11D808190E0B3010E94BA2101
:10432000DD20A9F706C080E290E0B3010E94BA2127
:10433000EA94EE20C1F743CEF30166817781CB0189
:104340002B96E2E10C94811FFC01059061507040B6
:104350000110D8F7809590958E0F9F1F0895FC014E
:104360006150704001900110D8F7809590958E0FA4
:104370009F1F08950F931F93CF93DF938C01EB0141
:104380008B8181FF1BC082FF0DC02E813F818C81FC
:104390009D812817390764F4E881F9810193F98335
:1043A000E88306C0E885F985802F0995892B31F4CB
:1043B0008E819F8101969F838E8302C00FEF1FEF36
:1043C000C801DF91CF911F910F910895FA01AA279B
:1043D000283051F1203181F1E8946F936E7F6E5F48
:1043E0007F4F8F4F9F4FAF4FB1E03ED0B4E03CD0F6
:1043F000670F781F891F9A1FA11D680F791F8A1FD9
:10440000911DA11D6A0F711D811D911DA11D20D03F
:1044100009F468943F912AE0269F11243019305DF9
:104420003193DEF6CF010895462F4770405D4193EA
:10443000B3E00FD0C9F7F6CF462F4F70405D4A3337
:1044400018F0495D31FD4052419302D0A9F7EACFFF
:10445000B4E0A6959795879577956795BA95C9F72E
:1044600000976105710508959B01AC010A2E069421
:104470005795479537952795BA95C9F7620F731FDA
:0C448000841F951FA01D0895F894FFCF25
:10448C0025690000000000000000003A00370034ED
:10449C0000310039003600330030003B0038003565
:1044AC000032003738392F3435362A3132332D4328
:1044BC00303D2B424A525A626A727A434B535B63C9
:0E44CC006B737B4C1D030013424A40650000D9
:00000001FF
